:080000001DC0FECFFDCFFCCFB7
:10000800FBCFFACFF9CFF8CFF7CFF6CFF5CFF4CFB4
:10001800F3CFF2CFF1CFF0CFEFCFEECFEDCFECCFE4
:10002800EBCF1027E80364000A000100001000016C
:1000380010000100F894EE27ECBBF1E0FBBFEBBF2A
:10004800E5BF8DE0A2E0BB27ED938A95E9F780E054
:1000580092E0A0E6ED930197E9F7EFE5EDBFE2E066
:10006800EEBFC0EED0E012C0DD9ADE9ADF980AC07B
:10007800DD98DE98DF9806C0DD9ADE9802C0DD9A2A
:10008800DE9ADF9AA4E6B0E031D00895E0EEEABB4C
:10009800EBBBE0E0E7BBE8BBE7EEE4BBE0E0E5BBD9
:1000A800E1BBE2BBE3BFE2BFECBFEFBDEEBDEDBD20
:1000B800ECBDE7BDE6BDEBBDEABDE9BDE8BDE2BD0F
:1000C800E5BDE4BDE3BDE9BFE5BFE4BFEAB9E0E8EB
:1000D800E8B9E0E0E0BFE6B9EDB9E6BFB09B04C01F
:1000E800CEDFC2DFC5DFC8DFF9CFFFCF109639F00A
:1000F800A89580EA9FE00197F1F71197C9F708954D
:00000001FF
