:0A00000037C0FECFFDCFFCCFFBCFD1
:10000A00FACFF9CFF8CFF7CFF6CFF5CFF4CFF3CFBA
:10001A00F2CFF1CFF0CFEFCFEECFEDCFECCFEBCFEA
:10002A001027E80364000A00010000100001100014
:10003A0001004E696C6169204144430020000100BF
:10004A002D4E414E00494E46000080C00A00E00095
:10005A003C000200EA0046000100F10048000200EC
:10006A00F50054000000F894EE27ECBBF1E0FBBF6A
:10007A00EBBFE5BF8DE0A2E0BB27ED938A95E9F7D8
:10008A0080E092E0A0E6ED930197E9F7E6E5F0E07B
:10009A0085919591009761F0A591B591059015907C
:1000AA00BF01F00105900D920197E1F7FB01F0CF36
:1000BA00EFE5EDBFE2E0EEBFC0EED0E00EC0AA93DE
:1000CA00E881E064E7B985E38A95F1F7369A349BCB
:1000DA00FECF349AE4B1F5B1FAC0E0E0EABBEBBB7B
:1000EA00E8E0E7BBE0E0E8BBE4BBE5BBE1BBE2BBC1
:1000FA00ECE7E3BFE0E0E2BFECBFEFBDEEBDEDBD74
:10010A00ECBDE7BDE6BDEBBDEABDE9BDE8BDE2BDBC
:10011A00E5BDE4BDE3BDE9BFE5BFE4BFEAB9E0E898
:10012A00E8B9E0E4E7B9E4E8E6B9E0E1E0BFE0E035
:10013A00EDB9E6BFA0E1A4D0A0EEB0E090D0E0E037
:10014A00EA93A1E05DD0A0E0BADF2F015A924A9269
:10015A00ACEEB0E00CD0ACEEB0E081D0AAEEB0E0EC
:10016A007ED0742C7CBEA8E0B4D0E9CFFFCFBA937E
:10017A00AA93A991B991E991F99130962AF4E09557
:10018A00F09531966DE26D93E89480E197E20DD097
:10019A0088EE93E00AD084E6992707D08AE005D052
:1001AA006E2F10D066276C9308956627E817F90713
:1001BA0020F06395E81BF90BC9F7662311F416F0D2
:1001CA0008956894605D6D930895AA93E5B3EF70FE
:1001DA00AE2FE881E07FEA2BE5BB7DD0AA9A7BD0DF
:1001EA00AA9879D074C0AA93A881EFDFE881E29532
:1001FA00E883A881EADF88EC90E00197F1F767C00D
:10020A00AA93E881F0E0EB50FF4FE081A981AE0F9D
:10021A00EADF6980988022960895A2E0E4DFA3E0ED
:10022A0058D0ACE0E0DFA1E0DEDFA3E052D0E0E0AE
:10023A009E2E6E2E0895AA93A881AA3011F06814F2
:10024A0040F0E0E0EA939394A92DDADFA881AA307E
:10025A00F1F16394A89AA881C6DFA89838C0BA9326
:10026A00AA931A93A981BA81ED91A983BA831E2F01
:10027A00E03019F0A12FDFDFF5CF1881239608951A
:10028A00AA93E4B3E06FE4BBA29AA09AA19AAA98AF
:10029A00A898A9988880E881E058E093F700E88157
:1002AA00E054E093F800A4E114D019D018D017D084
:1002BA00A0E28BDF80E991E00197F1F7A8E293DFF2
:1002CA00A4E091DFA5E88FDFA6E08DDFA6DF219607
:1002DA000895B0E00BC08BE18A95F1F70895A0E389
:1002EA0074DF80E991E00197F1F70895109639F0EB
:1002FA00A89580EA9FE00197F1F71197C9F7089549
:00000001FF
